:020000040800F2
:10000000A0060020010100081B1E0008651B000857
:10001000191E00086D0100085D23000800000000A3
:10002000000000000000000000000000951F000814
:100030007D010008000000001D1E0008971F000839
:100040001B0100081B0100081B0100089D1E000881
:100050001B0100081B0100081B0100081B01000810
:100060001B0100081B0100081B0100081B01000800
:100070001B0100081B0100081B010008710100089A
:100080001B0100081B0100081B0100081B010008E0
:100090001B0100081B0100081B0100081B010008D0
:1000A0001B0100081B0100081B0100081B010008C0
:1000B0001B010008192000081B0100081B01000893
:1000C0001B0100081B0100081B0100081B010008A0
:1000D0001B01000845230008512300081B010008EC
:1000E0007F0100081B0100081B010008DFF80CD08D
:1000F00000F02AF800480047AD240008A0060020C0
:100100000648804706480047FEE7FEE7FEE7FEE7B1
:10011000FEE7FEE7FEE7FEE7FEE7FEE71520000844
:10012000ED000008D2B201E000F8012B491EFBD21D
:1001300070470022F6E710B513460A4604461946F2
:10014000FFF7F0FF204610BD064C074D06E0E068C3
:1001500040F0010394E8070098471034AC42F6D30E
:10016000FFF7C8FF3025000850250008FEE7000013
:10017000014800F089B800005C020020704710B50B
:100180004FF4806000F07CF94FF4006000F078F9E3
:100190004FF4805000F074F9BDE810404FF4005067
:1001A00000F06EB972B6FEE710B590F8211000228B
:1001B000022905D00421816380F82020012010BD90
:1001C00001680B6823F00E030B6001680B6823F0D5
:1001D00001030B6090F84030C46B012101FA03F376
:1001E000636080F8211080F82020104610BD0000C8
:1001F00010B590F821100024022903D00421816356
:1002000001243DE001680A6822F00E020A600168DC
:100210000A6822F001020A601A4A0168914201D17B
:10022000012121E0174A1432914201D110211BE033
:10023000144A2832914201D1891515E0114A3C3205
:10024000914201D189140FE00E4A5032914202D1FD
:100250004FF4803108E00B4A6432914202D14FF4EE
:10026000801101E04FF08071064A083A5160012187
:1002700080F82110002180F82010416B01B18847DF
:10028000204610BD080002402DE9F05FC16B0C68EC
:1002900001680B68D0F840C0042202FA0CF2494D04
:1002A000DFF824A1494E4A4FDFF828B1DFF828E1F2
:1002B00022422CD05A072AD50A68920603D40A682B
:1002C00022F004020A600168A94201D1042219E067
:1002D000514501D1402215E0B14202D14FF4806274
:1002E00010E0B94202D14FF480420BE0594502D1EF
:1002F0004FF4802206E0714502D14FF4800201E004
:100300004FF080622F4908394A60C16A3BE04FF0E4
:10031000020808FA0CF818EA040F4FF000094FF031
:10032000010235D05FEA837832D50B689B0605D48D
:100330000B6823F00A030B6080F821200168A942B2
:1003400001D1022219E0514501D1202215E0B1422C
:1003500002D14FF4007210E0B94202D14FF40052C2
:100360000BE0594502D14FF4003206E0714502D14D
:100370004FF4001201E04FF00072124908394A6050
:1003800080F82090816A00291AD0BDE8F05F084704
:10039000082505FA0CF5254212D01B0710D50B686D
:1003A00023F00E030B6090F84010C36B02FA01F1CA
:1003B0005960826380F8212080F82090016BE2E789
:1003C000BDE8F09F080002401C00024030000240DF
:1003D00044000240580002406C00024030B528B38F
:1003E00008C8134914221944B1FBF2F18900C16312
:1003F00010498163022141771A6843F6F0718A43FC
:10040000D0E900142143D0E902452C43214304697B
:100410002143446921438469214311431960002128
:100420004163012242770177084630BD012030BD8B
:10043000F8FFFDBF0000024070B5044600F02AF945
:100440000546601C02D004480078044400F022F9FC
:10045000401BA042FAD370BD140000200649B0F53D
:10046000806F02D00020087070470878401C087028
:100470000821024800F000B900000020000C0140F3
:10048000044910B50A68024202D00860FFF7E6FF8F
:1004900010BD0000140401402DE9F84FDFF8B891B9
:1004A000002409F1040A0AF1040B23460F270BF17B
:1004B000040EC9E00125A5402A40AA427DD1674E1D
:1004C000D1F804C0ACEB0608B44532D014DCBCF162
:1004D000030F3AD009DCBCF1000F2AD0BCF1010FA8
:1004E0001CD0BCF1020F31D11DE0BCF1110F17D0AF
:1004F000BCF1120F2AD119E0B8F5881F19D006DC1B
:10050000B8F5803F15D0B8F5801F1FD111E0B8F5C0
:10051000001F0ED0B8F5041F18D10AE0CB6815E013
:10052000CB681B1D12E0CB6808330FE0CB680C339F
:100530000CE08B682BB1012B4FF0080303D0456111
:1005400004E0042302E0056100E00023FF2A01D853
:10055000064601E000F104064FEA840501D9A5F141
:100560002005D6F8008007FA05FC28EA0C0803FAF3
:1005700005F548EA0508C6F800804D68ED0062D52B
:10058000374DAE6946F00106AE61AD6924F0030651
:1005900005F001050095334D06EB050CDCF808501D
:1005A000A607360F07FA06F825EA0805DFF8B8802F
:1005B000404503D14FF0000817E044E0DFF8AC807D
:1005C000404502D14FF001080FE0DFF8A48040451C
:1005D00002D14FF0020808E0DFF89880404502D1D0
:1005E0004FF0030801E04FF0040808FA06F848EA63
:1005F0000508CCF808804D68D9F80060ED034D4639
:1006000001D5164300E096432E604D68DAF800608D
:10061000AD03554601D5164300E096432E604D6864
:10062000DBF80060ED025D4601D5164300E096431D
:100630002E604D68DEF80060AD02754601D51643A8
:1006400000E096432E60641C0D682A46E5407FF466
:1006500031AFBDE8F88F0000000401400000111028
:10066000001002400000014000080140000C014061
:100670000010014000140140C26821EA02030A4050
:1006800043EA0241016170470AB101617047090400
:10069000FBE700000148806870470000140000205C
:1006A00070B5040025D094F83D00002520B984F8E9
:1006B0003C50204600F0B8F8242084F83D00206823
:1006C000016821F0010101602068016841F40041E6
:1006D00001602068016821F40041016000F0E0FA47
:1006E0004D4A6168914201D84C4900E04C4988422A
:1006F00001D2012070BD4B492368B0FBF1F15E6867
:1007000026F03F060E435E606368934206D94FF4BD
:10071000967359434FF47A73B1FBF3F12368491C84
:100720001E6A26F03F06314319626168914210D873
:100730004900401EB0FBF1F2521CC2F30B02042A26
:1007400001D2042022E0B0FBF1F0401CC0F30B000A
:100750001CE0A268F2B301EBC10303EB0116431ED8
:10076000B3FBF6F35B1C43F480431B0549D092B303
:1007700001EBC10202EB0111401EB0FBF1F0401C85
:10078000C0F30B0040F4804040F400402168CA6987
:100790004CF6FF739A431043C861D4E90710014334
:1007A0002068026822F0C00211430160D4E903010D
:1007B00001432068826848F2FF339A431143816005
:1007C000D4E9050108432168CA6822F0FF021043FA
:1007D000C86001E00EE016E02068016841F0010108
:1007E00001602564202084F83D00256384F83E5094
:1007F000002070BD01EB4106431EB3FBF6F35B1C0A
:10080000B3E70120C2E701EB4101401EB0FBF1F06C
:10081000401CC0F30B00B7E7A086010080841E00D7
:1008200000093D0040420F0010B586B00021009144
:1008300001910291039100680F4988421AD10F4C2F
:10084000A06940F00800A061A069694600F00800B6
:100850000490C020009012200190032003900848CB
:10086000FFF71AFEE06940F40010E061E06900F46F
:100870000010049006B010BD00540040001002406B
:10088000000C014002488168027811448160704781
:1008900014000020074810B5016841F01001016004
:1008A000032000F075F8002000F006F800F024F8AE
:1008B000002010BD0020024070B50D4D04464FF4DD
:1008C0007A712878B1FBF0F00A490968B1FBF0F0C1
:1008D00000F03FFD48B9102C07D200222146501EDF
:1008E00000F036F800206C6070BD012070BD000083
:1008F00014000020200000200C4808B5816941F058
:1009000001018161816901F001010091C16941F03A
:100910008051C161C06900F0805000900448416876
:1009200021F0E06141F00071416008BD001002401B
:1009300000000140002809DB00F01F020121914066
:100940004009800000F1E020C0F80011704700006D
:10095000F0B40E4B1B680C46C3F30223C3F107052A
:10096000042D00D90425191D072901D2002300E018
:10097000DB1E012606FA05F1491E214099409E40E2
:10098000761E16403143F0BC01F0FABC0CED00E0DD
:10099000064900F0070208684FF6FF03184040EAD6
:1009A0000220034A10430860704700000CED00E08D
:1009B0000000FA05014901200862704700000E425C
:1009C00010B529A401461DCC86B08DE81D002AA0D3
:1009D0002A4C006804900020012923D002293AD033
:1009E00010291DD161682268D20119D5C1F3834253
:1009F000C9031DF8020009D5616804AAC1F340418A
:100A0000515C1F4AB2FBF1F1484301E01D494843E4
:100A10006168490204D440005FF00301B0FBF1F0CB
:100A200006B010BD226AC2F30121012903D1920749
:100A300001D5C803F4E7022905D1626A920702D5FD
:100A400049F64040ECE70329EAD121688903E7D55C
:100A50004FF22440E4E700F033F96168C1F38131DB
:100A6000491C4900DAE700000203040506070809EB
:100A70000A0B0C0D0E0F10100102000000100240B6
:100A800000127A0000093D002DE9F8430546007880
:100A9000354CC00754D0E0690026C00008D4E06996
:100AA00040F08050E061E069012600F08050009045
:100AB0002E480168C90512D40168804641F480714E
:100AC0000160FFF7E7FD074605E000BFFFF7E2FD25
:100AD000C01B642823D8D8F80000C005F6D5206ACA
:100AE00010F4407021D0A98801F4407181421CD0DB
:100AF000206A1F49012220F440700A6000220A6027
:100B00002062C00711D0FFF7C5FD074641F28838C3
:100B100008E000BFFFF7BEFDC11B414502D903201D
:100B2000BDE8F883206A8007F4D5206A696820F45C
:100B30004070084320621EB1E06920F08050E061FF
:100B40002878800705D56068A96820F440400843EC
:100B500060602878C00605D56068E96820F48000E8
:100B6000084360600020DBE7001002400070004096
:100B7000400442422DE9F0470F46050061D0434E44
:100B8000306800F00700B84209D2306820F0070052
:100B900038433060306800F00700B84251D128680F
:100BA0003B4C810712D5400703D5606840F4E060F4
:100BB00060602878000703D5606840F4605060608A
:100BC0006068A96820F0F000084360602878C007DA
:100BD00028D06868012810D02168022810D0890721
:100BE00000292EDA616821F0030101436160FFF7FB
:100BF00051FD804641F288390DE021688903EFE715
:100C00008901EDE7FFF746FDA0EB0801494502D950
:100C10000320BDE8F0876068696800F00C00B0EB65
:100C2000810FEFD1306800F00700B8420BD930686F
:100C300020F0070038433060306800F00700B84209
:100C400001D00120E5E72878400705D56068E9680C
:100C500020F4E060084360602878000706D56068EB
:100C6000296920F4605040EAC100606000F038F863
:100C70006168084AC1F30311515CC8400649086025
:100C800006480068FFF718FE0020C2E70020024077
:100C90000010024018250008200000201800002045
:100CA0000448054900684968044AC1F30221515CBF
:100CB000C84070472000002000100240282500088E
:100CC0000448054900684968044AC1F3C221515CDF
:100CD000C84070472000002000100240282500086E
:100CE00012A185B00FC98DE80F0014A0144A006846
:100CF00004905168134801F00C03042B10D0082B0A
:100D00000ED1C1F38343C9031DF803000AD551680E
:100D100004AAC1F34041515C0A4A5043B0FBF1F0D0
:100D200005B0704708494843FAE70000020304058C
:100D3000060708090A0B0C0D0E0F10100102000027
:100D40000010024000127A0000093D002DE9F84F22
:100D5000040070D02078C04DC00749D06868C0F347
:100D60008100012807D06868C0F38100022809D1FA
:100D70006868C00306D52868800339D560680028F4
:100D8000E7D035E06068B0F5803F0BD010B1B0F52A
:100D9000A02F11D0286820F480302860286820F423
:100DA000802002E0286840F480302860606890B1BC
:100DB000FFF770FC06460AE0286840F480202860AF
:100DC000F0E700BFFFF766FC801B642873D8286833
:100DD0008003F7D50CE0FFF75DFC064605E000BF99
:100DE000FFF758FC801B6428F0D828688003F7D4EC
:100DF00020789A4E80074FF001094FF0000839D54E
:100E0000686810F00C0F07D06868C0F381000228F2
:100E100009D16868C00306D42868800714D5206902
:100E2000012808D110E02069B0B1C6F80090FFF7A2
:100E300031FC074605E00AE1FFF72CFCC01B022845
:100E4000C4D828688007F7D52868616920F0F800C1
:100E500040EAC10028600DE0C6F80080FFF71AFCE8
:100E6000074604E0FFF716FCC01B022823D82868B9
:100E70008007F7D4207800072CD57948A169D9B12B
:100E8000C0F80090FFF706FC074604E0FFF702FCFD
:100E9000C01B02280FD8686A8007F7D571484FF445
:100EA000FA510068B0FBF1F0009000BF0098411EBD
:100EB0000091FAD20EE080E0C0F80080FFF7EAFB74
:100EC000074604E0FFF7E6FBC01B022875D8686AF6
:100ED0008007F7D42078400760D5E8690027C00074
:100EE00008D4E86940F08050E861E869012700F023
:100EF000805000905C480168C90513D4016883469E
:100F000041F480710160FFF7C5FB824606E000BF37
:100F1000FFF7C0FBA0EB0A0064284ED8DBF8000006
:100F2000C005F5D5E06801280AD008B1052813D01E
:100F3000286A20F001002862286A20F0040002E0FC
:100F4000286A40F001002862E06841F2883B98B1CD
:100F5000FFF7A0FB82460BE0286A40F004002862FD
:100F6000EEE700BFFFF796FBA0EB0A0159455AD800
:100F7000286A8007F6D50CE0FFF78CFB824605E077
:100F8000FFF788FBA0EB0A0159454CD8286A800777
:100F9000F6D41FB1E86920F08050E861E06988B3B9
:100FA0006968C1F38101022944D00228C6F8608033
:100FB00004D0FFF76FFB044638E034E0FFF76AFB2C
:100FC000074604E0FFF766FBC01B02282BD8286801
:100FD0008001F7D4206AB0F5803F05D16868A16828
:100FE00020F4003008436860D4E9080108436968C8
:100FF00021F4741108436860C6F86090FFF74AFB5B
:10100000044606E025E000BFFFF744FB001B022872
:1010100009D828688001F7D51BE000BFFFF73AFB2D
:10102000001B022802D90320BDE8F88F2868800140
:10103000F4D40EE00128F7D06868226A00F4803109
:10104000914204D1616A00F47010884201D00120FD
:10105000EAE70020E8E700000010024000004242FA
:10106000800442422000002000700040024850F8F6
:10107000210080B270470000006C0040704770474C
:1010800010B5044600680168C90717D04168C90750
:1010900014D040684007204607D5FFF7F0FF2168CD
:1010A0006FF004004860042002E0FFF7E7FF012032
:1010B00060742068416821F00101416010BD0000AA
:1010C00070B5040003D0607C002610B105E001205B
:1010D00070BD2674204600F043F80220607420465C
:1010E00000F01AF9042578BB204600F0A1FE58BB99
:1010F0002068416821F007014160A06820B11748CD
:10110000016821F0010101601448001F0168A26814
:1011100021F46071114301606068411C04D1012019
:10112000FFF74EFC80B1401E21688A6822F00F0252
:1011300042EA10428A602168CA6860F30F02CA60FE
:10114000204600F08FFE08B16574C0E7E673012009
:101150006073A0736074002070BD0000306C0040AC
:1011600008B500680D49884217D1FFF723FC0C48E9
:10117000C16941F00061C161C0690A4900F00060C5
:10118000009001200860002211460320FFF7E0FBD9
:10119000BDE808400320FFF7CDBB08BD0028004094
:1011A000001002403C0442422DE9F0410D4604008B
:1011B0003BD0C5B3207C01283AD04FF0010884F819
:1011C000108002206074E87872B300F028FEE073AB
:1011D000687800F024FE6073A87800F020FEA07309
:1011E000C2B2617BE07B00F076FE2073287020465F
:1011F00000F061FE4FF46161B0FBF1F100251829A8
:101200002DD91822B1FBF2F1A1EB011101EB410143
:10121000C1EB011100EBC1163146204600F09AFEE9
:101220000427C8B90BE000E004E00120BDE8F0812C
:101230000220FBE7E07368786073A878CFE7204668
:1012400000F032FE411C0AD0B04208D206490144E7
:10125000204600F06BFE10B167742574E5E784F852
:10126000118025740020E1E7805101002DE9F04153
:101270000D46040024D01DB3207C012823D04FF05C
:10128000010884F81080022060742878EAB100F028
:10129000C6FD4FF4616100FB01F6687800F0BFFD08
:1012A000C0EB001006EB8006A87800F0B8FD3518FA
:1012B0002946204600F04EFE0026042710BB0FE012
:1012C0000120BDE8F0810220FBE74FF46161484353
:1012D0006978C1EB011100EB8100A9784518E7E7B7
:1012E0002068416821F005014160204600F0DCFDE6
:1012F000411C0AD0A84208D206490144204600F009
:1013000015FE10B167742674DAE784F8118026742C
:101310000020D6E78051010070B504000AD0206893
:10132000416821F008014160FFF7B4F905464FF428
:101330007A7608E0012070BDFFF7ACF9401BB0429F
:1013400001D9032070BD206840680007F4D5002053
:1013500070BD10B5401EB0F1807F01D3012010BDDB
:101360004FF0E02460610F21601701F009F80020C0
:10137000A06107202061002010BD70477047000069
:1013800070B590F83C20012A26D0012480F83C401A
:10139000022280F83D2003685A689D6822F070069A
:1013A0000A6832435A600D4B02689A4208D0B2F183
:1013B000804F05D00A4B9A4202D00A4B9A4204D180
:1013C000496825F080031943916080F83D40002171
:1013D00080F83C10084670BD022070BD002C014012
:1013E000000400400008004010B5040003D094F849
:1013F0003D0010B107E0012010BD002084F83C0042
:10140000204600F01FF8022084F83D00211D2068CE
:1014100000F008FE012084F8460084F83E0084F8BD
:101420003F0084F8400084F8410084F8420084F8CA
:10143000430084F8440084F8450084F83D0000200F
:1014400010BD000008B500680B49884212D10B4856
:10145000C16941F00201C161C069002200F00200CF
:10146000009011461D20FFF773FABDE808401D20CB
:10147000FFF760BA08BD0000000400400010024001
:1014800070B5044690F83C00012817D0012584F877
:101490003C50022084F83D002068826822F07702E8
:1014A00022F47F4282600868502830D00DDC20286A
:1014B0004DD005DC98B310283BD148E0022070BD28
:1014C000302844D0402834D139E0602828D0702812
:1014D00006D0B0F5805F2CD0B0F5005F29D10AE0CE
:1014E000CB68D1E90121206800F0D2FD2068816835
:1014F00041F0770109E0CB68D1E90121206800F0D3
:10150000C7FD2068816841F48041816011E0CA68AC
:101510004968206800F0CEFD5021206807E016E001
:10152000CA684968206800F0D6FD6021206800F094
:10153000B9FD84F83D50002084F83C0070BDCA68B5
:101540004968206800F0B6FD40212068EFE7226876
:1015500001461046EBE7704770B504460068016924
:101560004FF00005C943890715D4C168C9438907ED
:1015700011D4E91E0161012020772068806980076D
:10158000204602D0FFF7E7FF04E000F098F820467D
:1015900000F096F8257720680169C943490717D4F8
:1015A000C168C943490713D46FF0040101610220E7
:1015B00020772068806910F4407F204602D0FFF732
:1015C000CAFF04E000F07BF8204600F079F82577A8
:1015D00020680169C943090716D4C168C9430907CE
:1015E00012D46FF008010161042020772068C069DF
:1015F0008007204602D0FFF7AEFF04E000F05FF85E
:10160000204600F05DF8257720680169C943C906C6
:1016100017D4C168C943C90613D46FF01001016122
:10162000082020772068C06910F4407F204602D04F
:10163000FFF791FF04E000F042F8204600F040F888
:10164000257720680169C943C90708D1C168C94322
:10165000C90704D1891E0161204600F032F82068D4
:101660000169C943090609D4C168C943090605D4FB
:101670006FF0800101612046FFF77FFE206801695D
:10168000C943490609D4C168C943490605D46FF066
:1016900040010161204600F015F820680169C94346
:1016A00089060BD4C168C943890607D46FF02001AD
:1016B00001612046BDE87040FFF760BE70BD704715
:1016C000704770477047704770470000F8B5026870
:1016D00004461068D168536910F00F0F4FF00005F1
:1016E00053D003F0010601F4907737435FD0C2076F
:1016F00005D0CA0503D5226C42F0010222644207DC
:1017000005D5DA0703D0226C42F002022264820778
:1017100005D5DA0703D0226C42F0040222640207E6
:1017200007D501F02002324303D0226C42F00802B8
:101730002264226C002A34D0800604D5880602D5A3
:10174000204600F0FAFC20684069216CC0F380104C
:10175000090700D430B3204600F0D7FC2068416967
:1017600049061BD5416921F040014161A06BA8B138
:1017700058494163A06BFEF73BFD002811D0A06BD8
:10178000416B01B0BDE8F040084783060FD58B06DA
:101790000DD52046BDE8F84000F0CFBC2046FFF74D
:1017A00093FFF8BD2046FFF78FFF2564F8BD266B39
:1017B0002023012E52D1C60650D5CE064ED5106834
:1017C00050680090506940062AD5A16B08684068AF
:1017D0000004000CEAD0A68D8642E7D9E08588692E
:1017E000202818D0D06820F48070D060206841692B
:1017F00021F0010141612068416921F0400141610E
:1018000084F83E3025632068C16821F01001C16072
:10181000A06BFEF7C9FCA08DE18D401A81B219E0E2
:10182000A08DE18D401A81B2E08D0028BED0002944
:10183000BCD0D06820F49070D0602068426922F05B
:101840000102426184F83E3025632068C26822F0BC
:101850001002C2602046FFF736FFF8BD05062BD503
:101860000D0629D594F83D002128F6D1A068B0F5E1
:10187000805F01D12069B0B1206A411C21622168DA
:1018800000784860E08C401E0004000CE084E4D145
:101890002068C16821F08001C1602068C16841F002
:1018A0004001C160F8BD206A0088C0F308005060A4
:1018B000206A801C2062E5E74006F3D54806F1D592
:1018C000D168204621F04001D16084F83D3000F01D
:1018D00048F9F8BDFB20000870B5040004D094F866
:1018E0003D00002510B106E0012070BD84F83C5099
:1018F000204600F023F8242084F83D002068C168C9
:1019000021F40051C160204600F072FC206801699A
:1019100021F4904101612068416921F02A0141616F
:101920002068C16841F40051C1602564202084F81A
:101930003D0084F83E00002070BD0000F0B585B089
:10194000002400940194029403940646374F0368E0
:10195000374902200322374DBB4239D18B6943F40A
:1019600080438B618B6903F4804304938B6943F05C
:1019700004038B618969039201F00401049101025F
:10198000CDE9001069462846FEF786FD2815CDE909
:101990000004694628460294FEF77EFD274D26483E
:1019A000C5E900048020C5E902402C616C61AC618E
:1019B0002846EC61FEF712FD08B1FEF7F3FBB563B4
:1019C0000022114625206E62FEF7C2FF252028E086
:1019D0001B4EB34227D1CB6943F40033CB61CB69B3
:1019E00003F4003304938B6943F004038B6189692A
:1019F000039201F0040104910421CDE9001069462D
:101A00002846FEF749FD0820CDE90004694628462E
:101A10000294FEF741FD002211462620FEF798FFB2
:101A20002620FEF787FF05B0F0BD0000003801401A
:101A30000010024000080140580002405C020020F3
:101A40000044004090F83E30202B0ED159B152B1E5
:101A500090F83C30012B08D0012380F83C30002363
:101A6000036300F021BC0120704702207047000092
:101A70000C4910B54A780C493AB1012A01D0022A22
:101A800002D10068884205D010BD00688842FBD1B1
:101A900000F074FA03490122BDE81040491D0348D3
:101AA000FFF7D0BF0000002000380140D401002023
:101AB0002DE9F843044690F83D001F4616460D46B2
:101AC00020284CD1C5B1BEB194F83C00012846D0C5
:101AD000012084F83C004FF00008C4F84080212029
:101AE00084F83D00FEF7D6FDA6848146E684A06812
:101AF000B0F5805F03D004E00120BDE8F8832069E1
:101B000028B12E465FF0000584F83C800EE00026E8
:101B1000FAE78021204600F0E2FBA0B9AEB116F84A
:101B2000010B21684860E08C401EE084E08C4B464D
:101B30004FF0000200970028EBD14FF04001204603
:101B400000F0CDFB30B10320D7E735F8020BC0F32E
:101B50000800E6E7202084F83D000020CDE70220C1
:101B6000CBE77047FEE70000094808B5416941F03E
:101B7000010141614069002200F00100009011461E
:101B80000F20FEF7E5FEBDE808400F20FEF7D2BEAD
:101B9000001002402DE9F04186B000253348009541
:101BA000019502950395816941F010018161816978
:101BB00001F010010491816941F020018161816986
:101BC00001F020010491816941F004018161816982
:101BD00001F004010491816941F00801816180698B
:101BE000DFF88C8000F008004FF44044049000229D
:101BF00021464046FEF748FD01221E4FD6023146DF
:101C00003846FEF741FD012238214046FEF73CFDF3
:101C10004FF4705000901848CDE9010569464046E0
:101C2000FEF73AFC00940124CDE90145694640469F
:101C30000394FEF731FCCDE900640226CDE90246AB
:101C400069463846FEF728FC38208DE87100694661
:101C50004046FEF721FC002211462820FEF778FEC0
:101C60002820FEF767FE06B0BDE8F08100100240B4
:101C7000000C014000080140000021100D4810B583
:101C80000B4901600C49416000214FF480428160A2
:101C9000C0E9031241618161C1610162FEF700FD8B
:101CA000002803D0BDE81040FEF77CBA10BD00004C
:101CB0000054004024010020A08601001CB500242F
:101CC0001E4801941C4900940160611E41604FF45C
:101CD00080718160FFF7F4F908B1FEF763FA012122
:101CE0001648FFF7C3F9A0F5A041503923D01020C2
:101CF0008DF804002D208DF805008DF80640002297
:101D000001A90E48FFF7B2FA08B1FEF74BFA04201A
:101D10008DF8000007208DF8010001208DF80200E9
:101D20008DF80340002269460448FFF73DFA002879
:101D300001D0FEF737FA1CBD0028004078010020D2
:101D400010B586B0002417480094019402940394BF
:101D500004941349059401604721C0E9011440F23D
:101D6000E731C0E903148461FFF73EFB08B1FEF7D9
:101D700019FA4FF48050009069460A48FFF780FB3B
:101D800008B1FEF70FFA049404A906480594FFF77A
:101D9000F7FA002801D0FEF705FA06B010BD0000E2
:101DA000000400408C0100200C4810B50A49016075
:101DB0004FF4E1314160002181600C22C160C0E933
:101DC00004128161C161FFF787FD002803D0BDE8DF
:101DD0001040FEF7E7B910BD00380140D4010020E3
:101DE0000C4810B50A4901604FF4E131416000210F
:101DF00081600C22C160C0E904128161C161FFF7FA
:101E00006BFD002803D0BDE81040FEF7CBB910BD34
:101E10000044004018020020FEE7FEE77047010979
:101E200001EB810100F00F0000EB4100C0B27047F0
:101E300070B50446FEF72EFC05464FF47A7606E0B0
:101E4000FEF728FC401BB04201D9032070BD20687A
:101E500040688006F4D52068416841F01001416077
:101E6000002070BD70B504460068416821F0100183
:101E70004160FEF70FFC05464FF47A7607E000BF9D
:101E8000FEF708FC401BB04201D9032070BD20685A
:101E900040688006F4D5002070BD00000148FFF7BF
:101EA000EFB80000780100200168086A496A89B229
:101EB00041EA00407047006881698AB2C1698BB20B
:101EC000816989B28A4203D0C06961F31F407047BB
:101ED00043EA02407047F0B56424C1EBC10309270F
:101EE000A500072603EB01130329B3FBF7F100F567
:101EF000FA60114401440AD2401EB0FBF4F201EB37
:101F00009001B0FBF5F0891A0844001D08E0B0FB11
:101F1000F4F201EB9001B0FBF5F0891A0844801C43
:101F2000B0FBF6F106FB1100C0B2F0BD70B50D4676
:101F300006460024FFF77CFF48B93168280C086288
:101F40003168A8B248623046FFF78CFF00B1012427
:101F5000204670BD70B50D4606460024FFF768FFA9
:101F600048B93168280C88613168A8B2C861304628
:101F7000FFF778FF00B10124204670BD0349044BF0
:101F800008794A791A54401C0871704700000020F3
:101F9000280000207047FEF775BC70B594B028216A
:101FA0006846FEF7C6F814210AA8FEF7C2F8002416
:101FB00001250F9410942804CDE900501194129437
:101FC000029402260495CDE907604FF4E0100990D1
:101FD0006846FEF7BBFE08B172B6FEE70F20CDE9FA
:101FE0000A064FF48060CDE90C4002210AA80E9445
:101FF000FEF7C0FD08B172B6FEE74FF44070CDE9C0
:102000000F500FA8FEF740FD002801D072B6FEE782
:1020100014B070BD704700000148FFF79DBA000082
:102020008C010020F0B50268164B174C174D4FF08D
:102030008047984205D0B84203D0A04201D0A842C0
:1020400003D122F070064A683243984205D0B84264
:1020500003D0A04201D0A84203D122F44074CA6840
:1020600022434C6922F08002224302608A68C262E5
:102070000A688262984201D10969016301214161C4
:10208000F0BD0000002C01400004004000080040AA
:1020900010B5846842EA032224F47F440A432243B1
:1020A000826010BD826822F070020A4342F007018C
:1020B0008160704710B5036A046A24F00104046269
:1020C000846924F0F00444EA021423F00A020A436B
:1020D0008461026210BD10B5036A23F0100303622D
:1020E0008369046A23F4704343EA023224F0A003B4
:1020F00043EA01118261016210BD10B5406A0021FE
:10210000C185C184FFF7E0FA10BD0168CA6822F4F6
:102110009072CA6001684A6922F001024A61016B4B
:10212000012904D10168CA6822F01002CA60202186
:1021300080F83E1000210163704708B590F83E100A
:10214000222901D0022008BD82684FF480539A42B0
:1021500001D1016921B1816A9A421BD04AB10AE0DA
:102160000268816A5268C2F308020A80816A891C87
:1021700008E0026972B10268526802F07F020A70D8
:10218000816A491C8162C18D491E0904090CC185FF
:1021900003D019E002685268F1E70168CA6822F0CA
:1021A0002002CA600168CA6822F48072CA600168AD
:1021B0004A6922F001024A61202180F83E10016B39
:1021C000012903D0FFF754FC002008BD0021016362
:1021D0000168CA6822F01002CA6001680A68D20663
:1021E00002D50A6849680091818DFFF76CFAEBE728
:1021F00070B5044600680169E26821F4405111435A
:1022000001612169A0680843616908432168CA68BF
:1022100041F20C639A430243CA6020684169A26993
:1022200021F44071114341611E492068884202D166
:10223000FEF746FD01E0FEF733FD00EBC00101EBC8
:102240000012606864218000B2FBF0F3B3FBF1F38D
:102250006FF018067343B2FBF0F5B2FBF0F605EB36
:102260008305322303EB0515B5FBF1F5B6FBF1F65B
:1022700005F0F00505EB0615B2FBF0F6B2FBF0F049
:10228000B0FBF1F06FF01802504306EB800003EB57
:102290000010B0FBF1F0216800F00F0028448860C6
:1022A00070BD00000038014081628285C285002136
:1022B0000164222280F83E2080F83C100168CA6840
:1022C00042F48072CA6001684A6942F001024A61C0
:1022D0000068C16841F02001C160002070472DE90D
:1022E000F041984617460E460446069D1DE0681CC0
:1022F0001BD02DB1FEF7CEF9A0EB0800A84214D9EF
:102300002068C16821F4D071C1602068416921F062
:1023100001014161202084F83D0084F83E00002046
:1023200084F83C000320BDE8F0812068006836EAAC
:10233000000004D00020B842D9D00020F3E70120EB
:10234000F9E700000148FFF7C1B90000D4010020FF
:102350000148FFF7BBB9000018020020FEE70000AB
:102360000FB4054B10B503A9044A029800F027F8F2
:1023700010BC5DF814FB0000952400082400002028
:102380000907090E002804DB00F1E02080F80014A2
:10239000704700F00F0000F1E02080F8141D704736
:1023A00002E008C8121F08C1002AFAD1704770471E
:1023B000002001E001C1121F002AFBD170472DE966
:1023C000F84F9946924688460546002706E025289C
:1023D0000AD051464A4690476D1C7F1C2878002839
:1023E000F5D13846BDE8F88F002315F8011F1846CF
:1023F0002E2915D115F8011F04232A290DD06FF0BD
:102400002F022978A1F13004092C09D800EB8000B3
:1024100002EB400008446D1CF3E758F8040B6D1CF8
:102420002A78002ADDD0632A07D0732A0FD01046FD
:1024300051464A4690477F1C2AE018F8042B8DF835
:10244000002000218DF801106E46012103E058F8AC
:10245000046B4FF0FF315A074FF0000401D409E03C
:10246000641C84420BDA8C42FADB325D002AF7D11D
:1024700005E0641C8C42FCDB305D0028F9D1274468
:1024800004E016F8010B51464A469047641EF8D204
:102490006D1CA3E713B54FF6FF730122694602488E
:1024A000FFF706FB00981CBD18020020FEF7F2F9AA
:1024B000FFF773FDFFF76EFBFFF756FBFFF774FCAA
:1024C000FFF78EFCFFF73CFCFFF7F8FBFFF7D6FBAE
:1024D00001220B490B48FFF7B5FA09490122891E71
:1024E0000948FFF7AFFA09A0FFF73AFF094C10219E
:1024F0002046FEF7C1F8C820FDF79EFFF7E7000071
:1025000005000020D40100201802002073746172BD
:10251000740D0A00000C01400000000000000000E3
:102520000102030406070809000000000102030479
:10253000502500080000002028000000A02300080B
:10254000782500082800002078060000B023000845
:10255000000000000000000000000000000000007B
:10256000000000000100000010000000000000005A
:082570000024F400000000004B
:04000005080000ED02
:00000001FF
